{
  "contractName": "CharityApp",
  "abi": [
    {
      "inputs": [],
      "stateMutability": "nonpayable",
      "type": "constructor"
    },
    {
      "inputs": [],
      "name": "contractAddress",
      "outputs": [
        {
          "internalType": "address",
          "name": "",
          "type": "address"
        }
      ],
      "stateMutability": "view",
      "type": "function",
      "constant": true
    },
    {
      "inputs": [
        {
          "internalType": "address",
          "name": "",
          "type": "address"
        }
      ],
      "name": "registeredBen",
      "outputs": [
        {
          "internalType": "address",
          "name": "Address",
          "type": "address"
        },
        {
          "internalType": "address",
          "name": "OrgAddress",
          "type": "address"
        },
        {
          "internalType": "uint256",
          "name": "Amount",
          "type": "uint256"
        },
        {
          "internalType": "string",
          "name": "Name",
          "type": "string"
        },
        {
          "internalType": "enum CharityApp.ApprovalForm",
          "name": "Status",
          "type": "uint8"
        },
        {
          "internalType": "bool",
          "name": "Exists",
          "type": "bool"
        },
        {
          "internalType": "uint256",
          "name": "Votes",
          "type": "uint256"
        }
      ],
      "stateMutability": "view",
      "type": "function",
      "constant": true
    },
    {
      "inputs": [
        {
          "internalType": "address",
          "name": "",
          "type": "address"
        }
      ],
      "name": "registeredDonor",
      "outputs": [
        {
          "internalType": "address",
          "name": "Address",
          "type": "address"
        },
        {
          "internalType": "string",
          "name": "Name",
          "type": "string"
        },
        {
          "internalType": "uint256",
          "name": "Amount",
          "type": "uint256"
        },
        {
          "internalType": "bool",
          "name": "Exists",
          "type": "bool"
        }
      ],
      "stateMutability": "view",
      "type": "function",
      "constant": true
    },
    {
      "inputs": [
        {
          "internalType": "address",
          "name": "",
          "type": "address"
        }
      ],
      "name": "registeredOrg",
      "outputs": [
        {
          "internalType": "address",
          "name": "Address",
          "type": "address"
        },
        {
          "internalType": "string",
          "name": "Certificate",
          "type": "string"
        },
        {
          "internalType": "string",
          "name": "Name",
          "type": "string"
        },
        {
          "internalType": "enum CharityApp.ApprovalForm",
          "name": "Status",
          "type": "uint8"
        },
        {
          "internalType": "uint256",
          "name": "Balance",
          "type": "uint256"
        },
        {
          "internalType": "bool",
          "name": "Exists",
          "type": "bool"
        }
      ],
      "stateMutability": "view",
      "type": "function",
      "constant": true
    },
    {
      "inputs": [
        {
          "internalType": "string",
          "name": "name",
          "type": "string"
        },
        {
          "internalType": "uint256",
          "name": "amount",
          "type": "uint256"
        },
        {
          "internalType": "address",
          "name": "orgAddress",
          "type": "address"
        }
      ],
      "name": "beneSignUp",
      "outputs": [],
      "stateMutability": "nonpayable",
      "type": "function"
    },
    {
      "inputs": [
        {
          "internalType": "string",
          "name": "name",
          "type": "string"
        },
        {
          "internalType": "string",
          "name": "certificate",
          "type": "string"
        }
      ],
      "name": "orgSignUp",
      "outputs": [],
      "stateMutability": "nonpayable",
      "type": "function"
    },
    {
      "inputs": [
        {
          "internalType": "string",
          "name": "name",
          "type": "string"
        }
      ],
      "name": "donorSignUp",
      "outputs": [],
      "stateMutability": "nonpayable",
      "type": "function"
    },
    {
      "inputs": [],
      "name": "adminSignUp",
      "outputs": [
        {
          "internalType": "address",
          "name": "",
          "type": "address"
        }
      ],
      "stateMutability": "view",
      "type": "function",
      "constant": true
    },
    {
      "inputs": [
        {
          "internalType": "address",
          "name": "orgAddress",
          "type": "address"
        },
        {
          "internalType": "enum CharityApp.ApprovalForm",
          "name": "status",
          "type": "uint8"
        }
      ],
      "name": "orgStatusUpdate",
      "outputs": [],
      "stateMutability": "nonpayable",
      "type": "function"
    },
    {
      "inputs": [
        {
          "internalType": "address payable",
          "name": "orgAddress",
          "type": "address"
        },
        {
          "internalType": "address",
          "name": "beneAddress",
          "type": "address"
        }
      ],
      "name": "donate",
      "outputs": [],
      "stateMutability": "payable",
      "type": "function",
      "payable": true
    },
    {
      "inputs": [
        {
          "internalType": "address",
          "name": "beneAddress",
          "type": "address"
        },
        {
          "internalType": "enum CharityApp.ApprovalForm",
          "name": "status",
          "type": "uint8"
        }
      ],
      "name": "beneUpdateStatus",
      "outputs": [],
      "stateMutability": "nonpayable",
      "type": "function"
    },
    {
      "inputs": [
        {
          "internalType": "address payable",
          "name": "beneAddress",
          "type": "address"
        }
      ],
      "name": "releaseFunds",
      "outputs": [],
      "stateMutability": "payable",
      "type": "function",
      "payable": true
    }
  ],
  "bytecode": "0x60806040526003600155600a60025534801561001a57600080fd5b50336000806101000a81548173ffffffffffffffffffffffffffffffffffffffff021916908373ffffffffffffffffffffffffffffffffffffffff1602179055506134798061006a6000396000f3fe6080604052600436106100a75760003560e01c806351944d661161006457806351944d661461019f578063a55ad78c146101e1578063b2ceddc41461020c578063d27c347514610235578063f6b4dfb414610278578063fc4b0e62146102a3576100a7565b80630b1cc78a146100ac57806313848cfd146100d5578063192e7a7b146100fe5780631c13d00f1461011a57806321bea7cc1461015a578063450a955c14610176575b600080fd5b3480156100b857600080fd5b506100d360048036038101906100ce91906125f0565b6102cc565b005b3480156100e157600080fd5b506100fc60048036038101906100f79190612684565b610577565b005b61011860048036038101906101139190612702565b610b7b565b005b34801561012657600080fd5b50610141600480360381019061013c919061272f565b611049565b6040516101519493929190612814565b60405180910390f35b610174600480360381019061016f9190612860565b61112e565b005b34801561018257600080fd5b5061019d600480360381019061019891906128a0565b611905565b005b3480156101ab57600080fd5b506101c660048036038101906101c1919061272f565b611a87565b6040516101d896959493929190612960565b60405180910390f35b3480156101ed57600080fd5b506101f6611c0d565b60405161020391906129cf565b60405180910390f35b34801561021857600080fd5b50610233600480360381019061022e91906129ea565b611ca4565b005b34801561024157600080fd5b5061025c6004803603810190610257919061272f565b611e65565b60405161026f9796959493929190612a62565b60405180910390f35b34801561028457600080fd5b5061028d611f89565b60405161029a91906129cf565b60405180910390f35b3480156102af57600080fd5b506102ca60048036038101906102c59190612684565b611fad565b005b80600460008273ffffffffffffffffffffffffffffffffffffffff1673ffffffffffffffffffffffffffffffffffffffff16815260200190815260200160002060050160009054906101000a900460ff1661035c576040517f08c379a000000000000000000000000000000000000000000000000000000000815260040161035390612b24565b60405180910390fd5b600360003373ffffffffffffffffffffffffffffffffffffffff1673ffffffffffffffffffffffffffffffffffffffff16815260200190815260200160002060040160019054906101000a900460ff16610571576040518060e001604052803373ffffffffffffffffffffffffffffffffffffffff1681526020018373ffffffffffffffffffffffffffffffffffffffff16815260200184815260200185815260200160006007811115610413576104126128e9565b5b81526020016001151581526020016000815250600360003373ffffffffffffffffffffffffffffffffffffffff1673ffffffffffffffffffffffffffffffffffffffff16815260200190815260200160002060008201518160000160006101000a81548173ffffffffffffffffffffffffffffffffffffffff021916908373ffffffffffffffffffffffffffffffffffffffff16021790555060208201518160010160006101000a81548173ffffffffffffffffffffffffffffffffffffffff021916908373ffffffffffffffffffffffffffffffffffffffff1602179055506040820151816002015560608201518160030190816105129190612d50565b5060808201518160040160006101000a81548160ff0219169083600781111561053e5761053d6128e9565b5b021790555060a08201518160040160016101000a81548160ff02191690831515021790555060c082015181600501559050505b50505050565b33600460008273ffffffffffffffffffffffffffffffffffffffff1673ffffffffffffffffffffffffffffffffffffffff16815260200190815260200160002060050160009054906101000a900460ff16610607576040517f08c379a00000000000000000000000000000000000000000000000000000000081526004016105fe90612b24565b60405180910390fd5b8233600360008373ffffffffffffffffffffffffffffffffffffffff1673ffffffffffffffffffffffffffffffffffffffff16815260200190815260200160002060040160019054906101000a900460ff16610698576040517f08c379a000000000000000000000000000000000000000000000000000000000815260040161068f90612e6e565b60405180910390fd5b8073ffffffffffffffffffffffffffffffffffffffff16600360008473ffffffffffffffffffffffffffffffffffffffff1673ffffffffffffffffffffffffffffffffffffffff16815260200190815260200160002060010160009054906101000a900473ffffffffffffffffffffffffffffffffffffffff1673ffffffffffffffffffffffffffffffffffffffff1614610768576040517f08c379a000000000000000000000000000000000000000000000000000000000815260040161075f90612e6e565b60405180910390fd5b84846000600360008473ffffffffffffffffffffffffffffffffffffffff1673ffffffffffffffffffffffffffffffffffffffff16815260200190815260200160002060040160009054906101000a900460ff169050600160078111156107d2576107d16128e9565b5b8260078111156107e5576107e46128e9565b5b1480610815575060026007811115610800576107ff6128e9565b5b826007811115610813576108126128e9565b5b145b15610886576000600781111561082e5761082d6128e9565b5b816007811115610841576108406128e9565b5b14610881576040517f08c379a000000000000000000000000000000000000000000000000000000000815260040161087890612eda565b60405180910390fd5b6109b4565b6005600781111561089a576108996128e9565b5b8260078111156108ad576108ac6128e9565b5b0361091e57600160078111156108c6576108c56128e9565b5b8160078111156108d9576108d86128e9565b5b14610919576040517f08c379a000000000000000000000000000000000000000000000000000000000815260040161091090612eda565b60405180910390fd5b6109b3565b60066007811115610932576109316128e9565b5b826007811115610945576109446128e9565b5b036109b2576005600781111561095e5761095d6128e9565b5b816007811115610971576109706128e9565b5b146109b1576040517f08c379a00000000000000000000000000000000000000000000000000000000081526004016109a890612eda565b60405180910390fd5b5b5b5b86600360008a73ffffffffffffffffffffffffffffffffffffffff1673ffffffffffffffffffffffffffffffffffffffff16815260200190815260200160002060040160006101000a81548160ff02191690836007811115610a1957610a186128e9565b5b021790555060066007811115610a3257610a316128e9565b5b876007811115610a4557610a446128e9565b5b03610b7157600154600360008a73ffffffffffffffffffffffffffffffffffffffff1673ffffffffffffffffffffffffffffffffffffffff1681526020019081526020016000206005015410610b045760038060008a73ffffffffffffffffffffffffffffffffffffffff1673ffffffffffffffffffffffffffffffffffffffff16815260200190815260200160002060040160006101000a81548160ff02191690836007811115610afa57610af96128e9565b5b0217905550610b70565b6007600360008a73ffffffffffffffffffffffffffffffffffffffff1673ffffffffffffffffffffffffffffffffffffffff16815260200190815260200160002060040160006101000a81548160ff02191690836007811115610b6a57610b696128e9565b5b02179055505b5b5050505050505050565b8033600360008373ffffffffffffffffffffffffffffffffffffffff1673ffffffffffffffffffffffffffffffffffffffff16815260200190815260200160002060040160019054906101000a900460ff16610c0c576040517f08c379a0000000000000000000000000000000000000000000000000000000008152600401610c0390612e6e565b60405180910390fd5b8073ffffffffffffffffffffffffffffffffffffffff16600360008473ffffffffffffffffffffffffffffffffffffffff1673ffffffffffffffffffffffffffffffffffffffff16815260200190815260200160002060010160009054906101000a900473ffffffffffffffffffffffffffffffffffffffff1673ffffffffffffffffffffffffffffffffffffffff1614610cdc576040517f08c379a0000000000000000000000000000000000000000000000000000000008152600401610cd390612e6e565b60405180910390fd5b826003600073ffffffffffffffffffffffffffffffffffffffff168273ffffffffffffffffffffffffffffffffffffffff1614610dc957806007811115610d2657610d256128e9565b5b600360008473ffffffffffffffffffffffffffffffffffffffff1673ffffffffffffffffffffffffffffffffffffffff16815260200190815260200160002060040160009054906101000a900460ff166007811115610d8857610d876128e9565b5b14610dc8576040517f08c379a0000000000000000000000000000000000000000000000000000000008152600401610dbf90612f46565b60405180910390fd5b5b84347effffffffffffffffffffffffffffffffffffffffffffffffffffffffffffff16600360008373ffffffffffffffffffffffffffffffffffffffff1673ffffffffffffffffffffffffffffffffffffffff1681526020019081526020016000206002015414610e6f576040517f08c379a0000000000000000000000000000000000000000000000000000000008152600401610e6690612fb2565b60405180910390fd5b347effffffffffffffffffffffffffffffffffffffffffffffffffffffffffffff16600460003373ffffffffffffffffffffffffffffffffffffffff1673ffffffffffffffffffffffffffffffffffffffff168152602001908152602001600020600401541015610f15576040517f08c379a0000000000000000000000000000000000000000000000000000000008152600401610f0c9061301e565b60405180910390fd5b8573ffffffffffffffffffffffffffffffffffffffff166108fc349081150290604051600060405180830381858888f19350505050158015610f5b573d6000803e3d6000fd5b506004600360008873ffffffffffffffffffffffffffffffffffffffff1673ffffffffffffffffffffffffffffffffffffffff16815260200190815260200160002060040160006101000a81548160ff02191690836007811115610fc257610fc16128e9565b5b0217905550347effffffffffffffffffffffffffffffffffffffffffffffffffffffffffffff16600460003373ffffffffffffffffffffffffffffffffffffffff1673ffffffffffffffffffffffffffffffffffffffff168152602001908152602001600020600401600082825461103a919061306d565b92505081905550505050505050565b60056020528060005260406000206000915090508060000160009054906101000a900473ffffffffffffffffffffffffffffffffffffffff169080600101805461109290612b73565b80601f01602080910402602001604051908101604052809291908181526020018280546110be90612b73565b801561110b5780601f106110e05761010080835404028352916020019161110b565b820191906000526020600020905b8154815290600101906020018083116110ee57829003601f168201915b5050505050908060020154908060040160009054906101000a900460ff16905084565b6001806002811115611143576111426128e9565b5b816002811115611156576111556128e9565b5b036111eb57600560003373ffffffffffffffffffffffffffffffffffffffff1673ffffffffffffffffffffffffffffffffffffffff16815260200190815260200160002060040160009054906101000a900460ff166111ea576040517f08c379a00000000000000000000000000000000000000000000000000000000081526004016111e1906130ed565b60405180910390fd5b5b82600460008273ffffffffffffffffffffffffffffffffffffffff1673ffffffffffffffffffffffffffffffffffffffff16815260200190815260200160002060050160009054906101000a900460ff1661127b576040517f08c379a000000000000000000000000000000000000000000000000000000000815260040161127290612b24565b60405180910390fd5b836001806007811115611291576112906128e9565b5b600460008473ffffffffffffffffffffffffffffffffffffffff1673ffffffffffffffffffffffffffffffffffffffff16815260200190815260200160002060030160009054906101000a900460ff1660078111156112f3576112f26128e9565b5b14611333576040517f08c379a000000000000000000000000000000000000000000000000000000000815260040161132a906130ed565b60405180910390fd5b33600560008273ffffffffffffffffffffffffffffffffffffffff1673ffffffffffffffffffffffffffffffffffffffff16815260200190815260200160002060040160009054906101000a900460ff166113c3576040517f08c379a00000000000000000000000000000000000000000000000000000000081526004016113ba90613159565b60405180910390fd5b85600073ffffffffffffffffffffffffffffffffffffffff168173ffffffffffffffffffffffffffffffffffffffff1614611616576000600360008373ffffffffffffffffffffffffffffffffffffffff1673ffffffffffffffffffffffffffffffffffffffff16815260200190815260200160002060040160009054906101000a900460ff169050600560078111156114605761145f6128e9565b5b816007811115611473576114726128e9565b5b146114b3576040517f08c379a00000000000000000000000000000000000000000000000000000000081526004016114aa90612f46565b60405180910390fd5b6000805b600560003373ffffffffffffffffffffffffffffffffffffffff1673ffffffffffffffffffffffffffffffffffffffff168152602001908152602001600020600301805490508110156115d1578373ffffffffffffffffffffffffffffffffffffffff16600560003373ffffffffffffffffffffffffffffffffffffffff1673ffffffffffffffffffffffffffffffffffffffff168152602001908152602001600020600301828154811061156f5761156e613179565b5b9060005260206000200160009054906101000a900473ffffffffffffffffffffffffffffffffffffffff1673ffffffffffffffffffffffffffffffffffffffff16036115be57600191506115d1565b80806115c9906131a8565b9150506114b7565b508015611613576040517f08c379a000000000000000000000000000000000000000000000000000000000815260040161160a90613262565b60405180910390fd5b50505b600061162360025461213a565b6040516020016116339190613330565b6040516020818303038152906040529050600254341015819061168c576040517f08c379a00000000000000000000000000000000000000000000000000000000081526004016116839190613352565b60405180910390fd5b508873ffffffffffffffffffffffffffffffffffffffff166108fc349081150290604051600060405180830381858888f193505050501580156116d3573d6000803e3d6000fd5b50347effffffffffffffffffffffffffffffffffffffffffffffffffffffffffffff16600560003373ffffffffffffffffffffffffffffffffffffffff1673ffffffffffffffffffffffffffffffffffffffff16815260200190815260200160002060020160008282546117479190613374565b92505081905550347effffffffffffffffffffffffffffffffffffffffffffffffffffffffffffff16600460008b73ffffffffffffffffffffffffffffffffffffffff1673ffffffffffffffffffffffffffffffffffffffff16815260200190815260200160002060040160008282546117c19190613374565b92505081905550600073ffffffffffffffffffffffffffffffffffffffff168873ffffffffffffffffffffffffffffffffffffffff16146118fa576001600360008a73ffffffffffffffffffffffffffffffffffffffff1673ffffffffffffffffffffffffffffffffffffffff168152602001908152602001600020600501600082825461184f9190613374565b92505081905550600560003373ffffffffffffffffffffffffffffffffffffffff1673ffffffffffffffffffffffffffffffffffffffff168152602001908152602001600020600301889080600181540180825580915050600190039060005260206000200160009091909190916101000a81548173ffffffffffffffffffffffffffffffffffffffff021916908373ffffffffffffffffffffffffffffffffffffffff1602179055505b505050505050505050565b600560003373ffffffffffffffffffffffffffffffffffffffff1673ffffffffffffffffffffffffffffffffffffffff16815260200190815260200160002060040160009054906101000a900460ff16611a845760606040518060a001604052803373ffffffffffffffffffffffffffffffffffffffff1681526020018381526020016000815260200182815260200160011515815250600560003373ffffffffffffffffffffffffffffffffffffffff1673ffffffffffffffffffffffffffffffffffffffff16815260200190815260200160002060008201518160000160006101000a81548173ffffffffffffffffffffffffffffffffffffffff021916908373ffffffffffffffffffffffffffffffffffffffff1602179055506020820151816001019081611a379190612d50565b50604082015181600201556060820151816003019080519060200190611a5e92919061235b565b5060808201518160040160006101000a81548160ff021916908315150217905550905050505b50565b60046020528060005260406000206000915090508060000160009054906101000a900473ffffffffffffffffffffffffffffffffffffffff1690806001018054611ad090612b73565b80601f0160208091040260200160405190810160405280929190818152602001828054611afc90612b73565b8015611b495780601f10611b1e57610100808354040283529160200191611b49565b820191906000526020600020905b815481529060010190602001808311611b2c57829003601f168201915b505050505090806002018054611b5e90612b73565b80601f0160208091040260200160405190810160405280929190818152602001828054611b8a90612b73565b8015611bd75780601f10611bac57610100808354040283529160200191611bd7565b820191906000526020600020905b815481529060010190602001808311611bba57829003601f168201915b5050505050908060030160009054906101000a900460ff16908060040154908060050160009054906101000a900460ff16905086565b60008060009054906101000a900473ffffffffffffffffffffffffffffffffffffffff1673ffffffffffffffffffffffffffffffffffffffff163373ffffffffffffffffffffffffffffffffffffffff1614611c9e576040517f08c379a0000000000000000000000000000000000000000000000000000000008152600401611c95906133f4565b60405180910390fd5b33905090565b600460003373ffffffffffffffffffffffffffffffffffffffff1673ffffffffffffffffffffffffffffffffffffffff16815260200190815260200160002060050160009054906101000a900460ff16611e61576040518060c001604052803373ffffffffffffffffffffffffffffffffffffffff16815260200182815260200183815260200160006007811115611d3f57611d3e6128e9565b5b815260200147815260200160011515815250600460003373ffffffffffffffffffffffffffffffffffffffff1673ffffffffffffffffffffffffffffffffffffffff16815260200190815260200160002060008201518160000160006101000a81548173ffffffffffffffffffffffffffffffffffffffff021916908373ffffffffffffffffffffffffffffffffffffffff1602179055506020820151816001019081611dec9190612d50565b506040820151816002019081611e029190612d50565b5060608201518160030160006101000a81548160ff02191690836007811115611e2e57611e2d6128e9565b5b02179055506080820151816004015560a08201518160050160006101000a81548160ff0219169083151502179055509050505b5050565b60036020528060005260406000206000915090508060000160009054906101000a900473ffffffffffffffffffffffffffffffffffffffff16908060010160009054906101000a900473ffffffffffffffffffffffffffffffffffffffff1690806002015490806003018054611eda90612b73565b80601f0160208091040260200160405190810160405280929190818152602001828054611f0690612b73565b8015611f535780601f10611f2857610100808354040283529160200191611f53565b820191906000526020600020905b815481529060010190602001808311611f3657829003601f168201915b5050505050908060040160009054906101000a900460ff16908060040160019054906101000a900460ff16908060050154905087565b60008054906101000a900473ffffffffffffffffffffffffffffffffffffffff1681565b60008054906101000a900473ffffffffffffffffffffffffffffffffffffffff1673ffffffffffffffffffffffffffffffffffffffff163373ffffffffffffffffffffffffffffffffffffffff161461203b576040517f08c379a0000000000000000000000000000000000000000000000000000000008152600401612032906133f4565b60405180910390fd5b81600460008273ffffffffffffffffffffffffffffffffffffffff1673ffffffffffffffffffffffffffffffffffffffff16815260200190815260200160002060050160009054906101000a900460ff166120cb576040517f08c379a00000000000000000000000000000000000000000000000000000000081526004016120c290612b24565b60405180910390fd5b81600460008573ffffffffffffffffffffffffffffffffffffffff1673ffffffffffffffffffffffffffffffffffffffff16815260200190815260200160002060030160006101000a81548160ff021916908360078111156121305761212f6128e9565b5b0217905550505050565b60606000600161214984612208565b01905060008167ffffffffffffffff81111561216857612167612431565b5b6040519080825280601f01601f19166020018201604052801561219a5781602001600182028036833780820191505090505b509050600082602001820190505b6001156121fd578080600190039150507f3031323334353637383961626364656600000000000000000000000000000000600a86061a8153600a85816121f1576121f0613414565b5b049450600085036121a8575b819350505050919050565b600080600090507a184f03e93ff9f4daa797ed6e38ed64bf6a1f0100000000000000008310612266577a184f03e93ff9f4daa797ed6e38ed64bf6a1f010000000000000000838161225c5761225b613414565b5b0492506040810190505b6d04ee2d6d415b85acef810000000083106122a3576d04ee2d6d415b85acef8100000000838161229957612298613414565b5b0492506020810190505b662386f26fc1000083106122d257662386f26fc1000083816122c8576122c7613414565b5b0492506010810190505b6305f5e10083106122fb576305f5e10083816122f1576122f0613414565b5b0492506008810190505b612710831061232057612710838161231657612315613414565b5b0492506004810190505b60648310612343576064838161233957612338613414565b5b0492506002810190505b600a8310612352576001810190505b80915050919050565b8280548282559060005260206000209081019282156123d4579160200282015b828111156123d35782518260006101000a81548173ffffffffffffffffffffffffffffffffffffffff021916908373ffffffffffffffffffffffffffffffffffffffff1602179055509160200191906001019061237b565b5b5090506123e191906123e5565b5090565b5b808211156123fe5760008160009055506001016123e6565b5090565b6000604051905090565b600080fd5b600080fd5b600080fd5b600080fd5b6000601f19601f8301169050919050565b7f4e487b7100000000000000000000000000000000000000000000000000000000600052604160045260246000fd5b61246982612420565b810181811067ffffffffffffffff8211171561248857612487612431565b5b80604052505050565b600061249b612402565b90506124a78282612460565b919050565b600067ffffffffffffffff8211156124c7576124c6612431565b5b6124d082612420565b9050602081019050919050565b82818337600083830152505050565b60006124ff6124fa846124ac565b612491565b90508281526020810184848401111561251b5761251a61241b565b5b6125268482856124dd565b509392505050565b600082601f83011261254357612542612416565b5b81356125538482602086016124ec565b91505092915050565b6000819050919050565b61256f8161255c565b811461257a57600080fd5b50565b60008135905061258c81612566565b92915050565b600073ffffffffffffffffffffffffffffffffffffffff82169050919050565b60006125bd82612592565b9050919050565b6125cd816125b2565b81146125d857600080fd5b50565b6000813590506125ea816125c4565b92915050565b6000806000606084860312156126095761260861240c565b5b600084013567ffffffffffffffff81111561262757612626612411565b5b6126338682870161252e565b93505060206126448682870161257d565b9250506040612655868287016125db565b9150509250925092565b6008811061266c57600080fd5b50565b60008135905061267e8161265f565b92915050565b6000806040838503121561269b5761269a61240c565b5b60006126a9858286016125db565b92505060206126ba8582860161266f565b9150509250929050565b60006126cf82612592565b9050919050565b6126df816126c4565b81146126ea57600080fd5b50565b6000813590506126fc816126d6565b92915050565b6000602082840312156127185761271761240c565b5b6000612726848285016126ed565b91505092915050565b6000602082840312156127455761274461240c565b5b6000612753848285016125db565b91505092915050565b612765816125b2565b82525050565b600081519050919050565b600082825260208201905092915050565b60005b838110156127a557808201518184015260208101905061278a565b60008484015250505050565b60006127bc8261276b565b6127c68185612776565b93506127d6818560208601612787565b6127df81612420565b840191505092915050565b6127f38161255c565b82525050565b60008115159050919050565b61280e816127f9565b82525050565b6000608082019050612829600083018761275c565b818103602083015261283b81866127b1565b905061284a60408301856127ea565b6128576060830184612805565b95945050505050565b600080604083850312156128775761287661240c565b5b6000612885858286016126ed565b9250506020612896858286016125db565b9150509250929050565b6000602082840312156128b6576128b561240c565b5b600082013567ffffffffffffffff8111156128d4576128d3612411565b5b6128e08482850161252e565b91505092915050565b7f4e487b7100000000000000000000000000000000000000000000000000000000600052602160045260246000fd5b60088110612929576129286128e9565b5b50565b600081905061293a82612918565b919050565b600061294a8261292c565b9050919050565b61295a8161293f565b82525050565b600060c082019050612975600083018961275c565b818103602083015261298781886127b1565b9050818103604083015261299b81876127b1565b90506129aa6060830186612951565b6129b760808301856127ea565b6129c460a0830184612805565b979650505050505050565b60006020820190506129e4600083018461275c565b92915050565b60008060408385031215612a0157612a0061240c565b5b600083013567ffffffffffffffff811115612a1f57612a1e612411565b5b612a2b8582860161252e565b925050602083013567ffffffffffffffff811115612a4c57612a4b612411565b5b612a588582860161252e565b9150509250929050565b600060e082019050612a77600083018a61275c565b612a84602083018961275c565b612a9160408301886127ea565b8181036060830152612aa381876127b1565b9050612ab26080830186612951565b612abf60a0830185612805565b612acc60c08301846127ea565b98975050505050505050565b7f496e76616c6964204f72672041646472657373732e0000000000000000000000600082015250565b6000612b0e601583612776565b9150612b1982612ad8565b602082019050919050565b60006020820190508181036000830152612b3d81612b01565b9050919050565b7f4e487b7100000000000000000000000000000000000000000000000000000000600052602260045260246000fd5b60006002820490506001821680612b8b57607f821691505b602082108103612b9e57612b9d612b44565b5b50919050565b60008190508160005260206000209050919050565b60006020601f8301049050919050565b600082821b905092915050565b600060088302612c067fffffffffffffffffffffffffffffffffffffffffffffffffffffffffffffffff82612bc9565b612c108683612bc9565b95508019841693508086168417925050509392505050565b6000819050919050565b6000612c4d612c48612c438461255c565b612c28565b61255c565b9050919050565b6000819050919050565b612c6783612c32565b612c7b612c7382612c54565b848454612bd6565b825550505050565b600090565b612c90612c83565b612c9b818484612c5e565b505050565b5b81811015612cbf57612cb4600082612c88565b600181019050612ca1565b5050565b601f821115612d0457612cd581612ba4565b612cde84612bb9565b81016020851015612ced578190505b612d01612cf985612bb9565b830182612ca0565b50505b505050565b600082821c905092915050565b6000612d2760001984600802612d09565b1980831691505092915050565b6000612d408383612d16565b9150826002028217905092915050565b612d598261276b565b67ffffffffffffffff811115612d7257612d71612431565b5b612d7c8254612b73565b612d87828285612cc3565b600060209050601f831160018114612dba5760008415612da8578287015190505b612db28582612d34565b865550612e1a565b601f198416612dc886612ba4565b60005b82811015612df057848901518255600182019150602085019450602081019050612dcb565b86831015612e0d5784890151612e09601f891682612d16565b8355505b6001600288020188555050505b505050505050565b7f496e76616c69642042656e656669636961727921210000000000000000000000600082015250565b6000612e58601583612776565b9150612e6382612e22565b602082019050919050565b60006020820190508181036000830152612e8781612e4b565b9050919050565b7f496e76616c69642062656e6566696369617279207374617475732e0000000000600082015250565b6000612ec4601b83612776565b9150612ecf82612e8e565b602082019050919050565b60006020820190508181036000830152612ef381612eb7565b9050919050565b7f496e76616c69642042656e656669636961727920737461747573212100000000600082015250565b6000612f30601c83612776565b9150612f3b82612efa565b602082019050919050565b60006020820190508181036000830152612f5f81612f23565b9050919050565b7f496e76616c696420416d6f756e74212100000000000000000000000000000000600082015250565b6000612f9c601083612776565b9150612fa782612f66565b602082019050919050565b60006020820190508181036000830152612fcb81612f8f565b9050919050565b7f496e73756666696369656e742066756e64732121000000000000000000000000600082015250565b6000613008601483612776565b915061301382612fd2565b602082019050919050565b6000602082019050818103600083015261303781612ffb565b9050919050565b7f4e487b7100000000000000000000000000000000000000000000000000000000600052601160045260246000fd5b60006130788261255c565b91506130838361255c565b925082820390508181111561309b5761309a61303e565b5b92915050565b7f496e76616c696420416363657373212100000000000000000000000000000000600082015250565b60006130d7601083612776565b91506130e2826130a1565b602082019050919050565b60006020820190508181036000830152613106816130ca565b9050919050565b7f496e76616c696420446f6e6f722041646472657373732e000000000000000000600082015250565b6000613143601783612776565b915061314e8261310d565b602082019050919050565b6000602082019050818103600083015261317281613136565b9050919050565b7f4e487b7100000000000000000000000000000000000000000000000000000000600052603260045260246000fd5b60006131b38261255c565b91507fffffffffffffffffffffffffffffffffffffffffffffffffffffffffffffffff82036131e5576131e461303e565b5b600182019050919050565b7f496e76616c6964206d756c7469706c6520766f74696e677320666f722074686560008201527f2073616d652062656e6566696369617279206973206e6f7420616c6c6f776564602082015250565b600061324c604083612776565b9150613257826131f0565b604082019050919050565b6000602082019050818103600083015261327b8161323f565b9050919050565b600081905092915050565b7f496e76616c696420646f6e6174696f6e20616d6f756e742073686f756c64206260008201527f652061746c656173742000000000000000000000000000000000000000000000602082015250565b60006132e9602a83613282565b91506132f48261328d565b602a82019050919050565b600061330a8261276b565b6133148185613282565b9350613324818560208601612787565b80840191505092915050565b600061333b826132dc565b915061334782846132ff565b915081905092915050565b6000602082019050818103600083015261336c81846127b1565b905092915050565b600061337f8261255c565b915061338a8361255c565b92508282019050808211156133a2576133a161303e565b5b92915050565b7f496e76616c6964204163636573732e0000000000000000000000000000000000600082015250565b60006133de600f83612776565b91506133e9826133a8565b602082019050919050565b6000602082019050818103600083015261340d816133d1565b9050919050565b7f4e487b7100000000000000000000000000000000000000000000000000000000600052601260045260246000fdfea26469706673582212209721a565d2ce13afb16a62f332423ab7cbb72526fc042d6592314d24e0f8b54364736f6c63430008110033",
  "immutableReferences": {},
  "source": "//SPDX-License-Identifier: UNLICENSED\n\nimport \"@openzeppelin/contracts/utils/Strings.sol\";\n\npragma solidity >=0.7.0 <0.9.0;\ncontract CharityApp {\n    \n    constructor() public{\n        contractAddress = msg.sender;// admin who is deploying the smart contract.\n    }\n    address public contractAddress;\n    enum Role {Organization, Donor, Beneficiary}\n    enum ApprovalForm {Init, Approve, Reject, VotesAcheived, Release, VotingStart, VotingEnd, VotesNotAcheived}\n    struct Organization{\n        address Address;// unique Address of the organization\n        string Certificate;//TO check if he is a legitimate customer or not\n        string Name;\n        ApprovalForm Status;\n        uint Balance;//to display the total balance of the organization.\n        bool Exists;// if the exist they won't be able to register again.\n        // yet to add other attributes for organization.\n    }\n   // Organization[] organization; // IN ORDER TO  GET ALL THE ORGANIZATIONS VIEW\n    struct Donor {\n        address Address;\n        string Name;\n        uint Amount;\n        address[] Beneficiaries;\n        bool Exists;\n    }\n    //MY CODE\n    struct Beneficiary {\n        address Address;\n        address OrgAddress;\n        uint Amount;\n        string Name;\n        ApprovalForm Status;\n        bool Exists;\n        uint Votes;\n    }\n\n    uint thresholdVotes = 3;\n    uint minimumDonation = 10;\n\n    mapping(address => Beneficiary) public registeredBen;\n    mapping(address => Organization) public registeredOrg;\n    mapping(address => Donor) public registeredDonor;\n\n    function beneSignUp(string memory name, uint amount, address orgAddress) checkOrgExists(orgAddress) public {\n        if(!registeredBen[msg.sender].Exists) {\n            registeredBen[msg.sender] = Beneficiary({\n                Address: msg.sender,\n                OrgAddress: orgAddress,\n                Amount: amount,\n                Name: name,\n                Status: ApprovalForm.Init,\n                Exists: true,\n                Votes: 0\n            });\n        }\n    }\n\n    //benificary should also have approval form\n    function orgSignUp(string memory name, string memory certificate) public{\n        if(!registeredOrg[msg.sender].Exists) {\n            registeredOrg[msg.sender] =Organization({// if the organization dosent exist we are creating a object(i.e value) with \n            //reference to key i.e address --> msg.sender.\n                   // organization.push(Organization( {\n                    Address: msg.sender,\n                    Certificate: certificate,\n                    Name:name,\n                    Status: ApprovalForm.Init,\n                    Balance: address(this).balance,\n                    Exists: true\n            });\n        }\n    }\n\n    modifier checkDonorExists(address donorAddress) {\n        require(registeredDonor[donorAddress].Exists, \"Invalid Donor Addresss.\");\n        _;\n    }\n\n    function donorSignUp(string memory name) public {\n        if(!registeredDonor[msg.sender].Exists) {// similar to organization we are also setting it up with donor\n            address[] memory emptyAddreses;\n            registeredDonor[msg.sender] = Donor(\n                {\n                    Address: msg.sender,\n                    Amount: 0,\n                    Name: name,\n                    Beneficiaries: emptyAddreses,\n                    Exists: true\n            });\n        }\n    }\n    //validating if its admin or not.\n    modifier checkIfAdmin() {\n        require(msg.sender == contractAddress, \"Invalid Access.\");\n        _;\n    }\n\n    // check if admin address is contract deployed address\n    function adminSignUp() checkIfAdmin() public view returns(address) {\n            return msg.sender; // FOR DEBUGGING I HAVE PUT.\n    }\n    //validating organization addr as a key we are checkingt if he already exists or not.\n    modifier checkOrgExists(address orgAddress) {\n        require(registeredOrg[orgAddress].Exists, \"Invalid Org Addresss.\");\n        _;\n    }\n    // updaitng the status of organization to approve or reject by admin approve/reject.\n    function orgStatusUpdate(address orgAddress, ApprovalForm status) \n        checkIfAdmin() checkOrgExists(orgAddress) public {\n        registeredOrg[orgAddress].Status = status;\n    }\n\n    modifier checkRole(Role role) {\n        if (role == Role.Donor) {\n            require(registeredDonor[msg.sender].Exists, \"Invalid Access!!\");\n        }\n        _;\n    }\n\n    modifier checkOrgStatus(address  orgAddress, ApprovalForm  status) {\n        require(registeredOrg[orgAddress].Status == status, \"Invalid Access!!\");\n        _;\n    }\n    modifier checkBeneStatus(address beneAddress, ApprovalForm status) {\n        if (beneAddress !=address(0)){\n            require(registeredBen[beneAddress].Status == status,\"Invalid Beneficiary status!!\");\n        }\n        _;\n    }\n\n    modifier checkMinimumDonationAmt() {\n        string memory errMsg = string(abi.encodePacked(\"Invalid donation amount should be atleast \", Strings.toString(minimumDonation)));\n        require(msg.value >= minimumDonation, errMsg);\n        _;\n    }\n\n    modifier checkDonateBeneStatus(address beneAddress) {\n        if (beneAddress !=address(0)){\n            ApprovalForm currStatus = registeredBen[beneAddress].Status;\n            require(currStatus == ApprovalForm.VotingStart, \"Invalid Beneficiary status!!\");\n            bool found = false;\n            for (uint256 i=0; i<registeredDonor[msg.sender].Beneficiaries.length; i++) {\n                if (registeredDonor[msg.sender].Beneficiaries[i] == beneAddress) {\n                    found = true;\n                    break;\n                }\n            }\n            require(!found, \"Invalid multiple votings for the same beneficiary is not allowed\");\n        }\n        _;\n    }\n\n    // bytes20ToLiteralString converts address or bytes20 to string \n    function bytes20ToLiteralString(bytes20 data) private pure returns (string memory result) {\n        bytes memory temp = new bytes(41);\n        uint256 count;\n        for (uint256 i = 0; i < 20; i++) {\n            bytes1 currentByte = bytes1(data << (i * 8));    \n            uint8 c1 = uint8(\n                bytes1((currentByte << 4) >> 4)\n            );\n            uint8 c2 = uint8(\n                bytes1((currentByte >> 4))\n            );\n            if (c2 >= 0 && c2 <= 9) temp[++count] = bytes1(c2 + 48);\n            else temp[++count] = bytes1(c2 + 87);\n            \n            if (c1 >= 0 && c1 <= 9) temp[++count] = bytes1(c1 + 48);\n            else temp[++count] = bytes1(c1 + 87);\n        }\n        result = string(temp);\n    }\n\n    // function for donors to donate to orgAddr and we are chekcing if role is donor, org exist, if org has approved or not\n    // and if donor exists. If everything is accepted we push the trsaction from donor to org and each trasaction is stored in array\n    // getAddress from and to we are encrpting with their roles at the end. \n    // are storing total amount trasfered by the donor as well as total amount received by the org.\n    function donate(address payable orgAddress, address beneAddress) checkRole(Role.Donor) checkOrgExists(orgAddress) \n        checkOrgStatus(orgAddress, ApprovalForm.Approve) checkDonorExists(msg.sender) \n        checkDonateBeneStatus(beneAddress) checkMinimumDonationAmt() public payable {\n        orgAddress.transfer(msg.value);\n        registeredDonor[msg.sender].Amount += uint248(msg.value);\n        registeredOrg[orgAddress].Balance += uint248(msg.value);\n        if (beneAddress != address(0)) {\n            registeredBen[beneAddress].Votes += 1;\n            registeredDonor[msg.sender].Beneficiaries.push(beneAddress);\n        }\n    }\n\n    modifier checkBeneExists(address beneAddress, address orgAddress) {\n        require(registeredBen[beneAddress].Exists, \"Invalid Beneficiary!!\");\n        require(registeredBen[beneAddress].OrgAddress == orgAddress, \"Invalid Beneficiary!!\");\n        _;\n    }\n\n    modifier checkStatusFlow(address beneAddress, ApprovalForm status) {\n        ApprovalForm currStatus = registeredBen[beneAddress].Status;\n        if (status == ApprovalForm.Approve || status == ApprovalForm.Reject) {\n            require(currStatus == ApprovalForm.Init, \"Invalid beneficiary status.\");\n        } else if (status == ApprovalForm.VotingStart) {\n            require(currStatus == ApprovalForm.Approve, \"Invalid beneficiary status.\");\n        } else if (status == ApprovalForm.VotingEnd) {\n            require(currStatus == ApprovalForm.VotingStart, \"Invalid beneficiary status.\");\n        }\n        _;\n    }\n\n    function beneUpdateStatus(address beneAddress, ApprovalForm status) \n        checkOrgExists(msg.sender) checkBeneExists(beneAddress, msg.sender)\n        checkStatusFlow(beneAddress, status) public {\n        registeredBen[beneAddress].Status = status;\n        if (status == ApprovalForm.VotingEnd) {\n            if (registeredBen[beneAddress].Votes >= thresholdVotes) {\n                registeredBen[beneAddress].Status = ApprovalForm.VotesAcheived;\n            } else {\n                registeredBen[beneAddress].Status = ApprovalForm.VotesNotAcheived;\n            }\n        }\n    }\n\n    modifier validateAmount(address beneAddress) {\n        require(registeredBen[beneAddress].Amount == uint248(msg.value), \"Invalid Amount!!\");// this is the amt i am giving to the bene and it should be equal\n        require(registeredOrg[msg.sender].Balance >= uint248(msg.value), \"Insufficient funds!!\"); // funds in. the org should be more than he is transfering to the beneficary.\n        _;\n    }\n\n    function releaseFunds(address payable beneAddress) \n        checkBeneExists(beneAddress, msg.sender) checkBeneStatus(beneAddress, ApprovalForm.VotesAcheived) \n        validateAmount(beneAddress) public payable {\n        beneAddress.transfer(msg.value);\n        registeredBen[beneAddress].Status = ApprovalForm.Release;\n        registeredOrg[msg.sender].Balance -= uint248(msg.value);\n    }\n\n}",
  "sourcePath": "/Users/swapnilkaspale/React/truffleProject/contracts/CharityApp.sol",
  "compiler": {
    "name": "solc",
    "version": "0.8.17+commit.8df45f5f.Emscripten.clang"
  },
  "schemaVersion": "3.4.10",
  "updatedAt": "2022-11-15T01:31:54.093Z",
  "networkType": "ethereum",
  "devdoc": {
    "kind": "dev",
    "methods": {},
    "version": 1
  },
  "userdoc": {
    "kind": "user",
    "methods": {},
    "version": 1
  }
}